S026000053697374656D2050656E67676572616B202D2052656365697665722076322E737265636B
S11300000C9435000C9452000C9452000C94520041
S11300100C9452000C9452000C9452000C94520014
S11300200C9452000C9452000C9452000C94520004
S11300300C9452000C9452000C9452000C945200F4
S11300400C94A6070C9452000C9421070C945200B3
S11300500C9447070C9452000C9452000C945200D8
S11300600C9452000C9452004A0B11241FBECFEF83
S1130070D8E0DEBFCDBF22E0A0E0B1E001C01D9218
S1130080AE3EB207E1F710E0C5E3D0E004C021972B
S1130090FE010E94420FC433D107C9F70E94330BFB
S11300A00C94480F0C94000015BC16BC17BC18BC6B
S11300B081EA84BD85E085BD81E080936E0008956A
S11300C00E9454008CEF8AB98BB183708BB9089568
S11300D0813041F018F0823061F011C08BB18F761D
S11300E08BB90DC08BB180618BB98BB18F778BB914
S11300F006C08BB18F7E8BB98BB180688BB967BD1D
S11301000895A0E8B0E01C92E1E8F0E010828C9140
S113011082608C938081886180838C91806A8C93C7
S11301208FE39CE99093870080938600109285006A
S11301301092840088EB9BE0909389008093880060
S113014090938B0080938A008081826080830895DD
S113015084B1866084B90E9481000895603A8FE07A
S1130160780738F080EA9FE09093890080938800B4
S11301700FC0613D87E0780738F480ED97E09093F5
S113018089008093880004C070938900609388007C
S1130190403A8FE0580738F080EA9FE090938B0054
S11301A080938A000895413D87E0580738F480ED34
S11301B097E090938B0080938A00089550938B006E
S11301C040938A000895CF93DF93EC0188EB9BE082
S11301D0998388839B838A831C821D821E821F824B
S11301E0188619861A861B860E94A8004A815B819C
S11301F068817981CE010E94AE00DF91CF9108958C
S11302008F929F92AF92BF92EF92FF920F931F93A0
S1130210CF93DF937C01CB01BA014801590120E05F
S113022030E040E251E40E94B30E0E94C60DEB019F
S1130230C854D44F20E030E040E251E4C501B40199
S11302400E94B30E0E94C60DAB014854544FBE0128
S1130250C7010E94AE00DF91CF911F910F91FF90D3
S1130260EF90BF90AF909F908F9008954F925F92C0
S11302706F927F92AF92BF92CF92DF92EF92FF92F2
S11302800F931F93CF93DF93CDB7DEB728970FB6A5
S1130290F894DEBF0FBECDBF2B013C0129833A8306
S11302A04B835C83ED82FE820F8318879B01AC0134
S11302B0C601B5010E944F0D18160CF058C0A301D9
S11302C09201C601B5010E94AE0E18160CF52981E3
S11302D03A814B815C81C601B5010E944F0D18160D
S11302E0BCF0A3019201C601B5010E94E20C6B01AE
S11302F07C01A301920169817A818B819C810E9496
S1130300E20C9B01AC01C701B6010E94540D3AC036
S113031029813A814B815C81C601B5010E94AE0EF0
S113032018164CF52D813E814F815885C601B501C3
S11303300E944F0D18161CF1A60195016D817E8156
S11303408F8198850E94E20C2B013C0129813A811E
S11303504B815C816D817E818F8198850E94E20C46
S11303609B01AC01C301B2010E94540D0BC060E0BB
S113037070E0CB0107C060E070E0CB0103C060E037
S113038070E0CB0128960FB6F894DEBF0FBECDBF48
S1130390DF91CF911F910F91FF90EF90DF90CF905D
S11303A0BF90AF907F906F905F904F9008954F9261
S11303B05F926F927F928F929F92AF92BF92CF92F1
S11303C0DF92EF92FF920F931F934B015C0129017F
S11303D03A01670178019B01AC01C701B6010E9493
S11303E04F0D18162CF5A5019401C701B6010E9402
S11303F0AE0E181614F5A3019201C701B6010E94AE
S11304004F0D1816F4F0A7019601C301B2010E9422
S1130410E20C6B017C01A5019401C301B2010E94AD
S1130420E20C9B01AC01C701B6010E94540D0CC043
S113043060E070E080E89FE307C060E070E0CB011B
S113044003C060E070E0CB011F910F91FF90EF902B
S1130450DF90CF90BF90AF909F908F907F906F90E0
S11304605F904F9008954F925F926F927F928F9218
S11304709F92AF92BF92CF92DF92EF92FF920F932F
S11304801F934B015C0129013A01670178019B012B
S1130490AC01C701B6010E944F0D18162CF5A50139
S11304A09401C701B6010E94AE0E18160CF5A30103
S11304B09201C701B6010E944F0D1816F4F0A50170
S11304C09401C701B6010E94E20C6B017C01A501F5
S11304D09401C301B2010E94E20C9B01AC01C7016B
S11304E0B6010E94540D0DC060E070E0CB0109C05C
S11304F060E070E080E89FE304C060E070E080E8C2
S11305009FE31F910F91FF90EF90DF90CF90BF90EA
S1130510AF909F908F907F906F905F904F900895D1
S11305204F925F926F927F92AF92BF92CF92DF927F
S1130530EF92FF920F931F93CF93DF93CDB7DEB764
S113054028970FB6F894DEBF0FBECDBF2B013C0138
S113055029833A834B835C83ED82FE820F83188761
S11305609B01AC01698D7A8D8B8D9C8D0E944F0D02
S113057018160CF076C0A3019201698D7A8D8B8DCB
S11305809C8D0E94AE0E18162CF529813A814B8160
S11305905C81698D7A8D8B8D9C8D0E944F0D181610
S11305A0CCF0A3019201698D7A8D8B8D9C8D0E9474
S11305B0E20C6B017C01A301920169817A818B8138
S11305C09C810E94E20C9B01AC01C701B6010E9410
S11305D0540D57C029813A814B815C81698D7A8D94
S11305E08B8D9C8D0E94AE0E181664F42D813E8175
S11305F04F815885698D7A8D8B8D9C8D0E944F0D0E
S113060018169CF52D813E814F815885698D7A8D10
S11306108B8D9C8D0E94AE0E181664F5A601950173
S1130620698D7A8D8B8D9C8D0E944F0D181634F137
S1130630298D3A8D4B8D5C8DC601B5010E94E20C6B
S11306402B013C012D813E814F815885C601B501A6
S11306500E94E20C9B01AC01C301B2010E94540D43
S113066010C060E070E0CB010CC060E070E080E896
S11306709FE307C060E070E0CB0103C060E070E07E
S1130680CB0128960FB6F894DEBF0FBECDBFDF9125
S1130690CF911F910F91FF90EF90DF90CF90BF907B
S11306A0AF907F906F905F904F9008950E944F0D90
S11306B0811105C060E070E080E89FE3089560E088
S11306C070E0CB010895CF92DF92EF92FF920F93E7
S11306D01F93CF93DF93C62ED72EE82EF92E022F29
S11306E0132FD42FC52F0E944F0D882324F40C2DD3
S11306F01D2DDE2DCF2D602F712F8D2F9C2FDF917F
S1130700CF911F910F91FF90EF90DF90CF900895BC
S1130710CF92DF92EF92FF920F931F93CF93DF93C9
S1130720C62ED72EE82EF92E022F132FD42FC52F25
S11307300E94AE0E181624F40C2D1D2DDE2DCF2D87
S1130740602F712F8D2F9C2FDF91CF911F910F91CF
S1130750FF90EF90DF90CF900895FC01608B208391
S11307603183428353830895EF92FF920F931F9333
S1130770FC01608B2083318342835383E482F582BE
S1130780068317831F910F91FF90EF900895AF9206
S1130790BF92CF92DF92EF92FF920F931F93CF936A
S11307A0DF93CDB7DEB7FC01608B208331834283B6
S11307B05383E482F58206831783A086B186C286BA
S11307C0D3868D859E85AF85B88984879587A687CE
S11307D0B787DF91CF911F910F91FF90EF90DF903A
S11307E0CF90BF90AF9008954F925F926F927F9297
S11307F08F929F92AF92BF92CF92DF92EF92FF922D
S11308000F931F93CF93DF93FC01D62FC72F9089AB
S11308109230D9F128F4992351F09130C9F066C08F
S1130820933009F443C0943009F455C05FC0448048
S11308305580668077806081718182819381E42E06
S1130840F52E0D2F1C2FA30192010E94D70151C038
S1130850A484B584C684D784E084F1840285138596
S11308604480558066807780608171818281938124
S1130870CF93DF935F934F93A30192010E94900261
S11308800F900F900F900F9034C084809580A680B5
S1130890B7806081718182819381E42EF52E0D2FC2
S11308A01C2FA50194010E94330223C0E084F1842B
S11308B002851385448055806680778060817181CC
S11308C082819381A42EB52ECD2EDC2EA30192011C
S11308D00E9436010EC06081718182819381242F30
S11308E0352F4D2F5C2F0E94560303C060E070E04B
S11308F0CB01DF91CF911F910F91FF90EF90DF908B
S1130900CF90BF90AF909F908F907F906F905F90AB
S11309104F9008958F929F92AF92BF92CF92DF92A1
S1130920EF92FF920F931F93CF93DF93EC014B0150
S11309305A010C831D832E833F83C886D986EA8699
S1130940FB86A9019801C701B6010E94E20C20E0D0
S113095030E040E151E40E94540D6C877D878E871E
S11309609F8799828882BB82AA82DF91CF911F914F
S11309700F91FF90EF90DF90CF90BF90AF909F903A
S11309808F900895CF92DF92EF92FF920F931F936F
S1130990FC0144835583668377830087118722870C
S11309A03387C486D586E686F7861F910F91FF901C
S11309B0EF90DF90CF9008950F931F93CF93DF9321
S11309C0DB01642FEC01E881F98141E14A9FC00118
S11309D04B9F900D1124A90198018E0F9F1F0E9417
S11309E0AD03DF91CF911F910F910895CF92DF92C4
S11309F0EF92FF920F931F93CF93DF93DB01642F4A
S1130A00A9019801EC01E881F98171E17A9FC001A3
S1130A107B9F900D1124870176018E0F9F1F0E94EA
S1130A20B403DF91CF911F910F91FF90EF90DF906E
S1130A30CF9008954F925F926F927F928F929F9280
S1130A40AF92BF92CF92DF92EF92FF920F931F93D8
S1130A50CF93DF93CDB7DEB72B01642FA9019801A3
S1130A60870176017B89DC88CD887E88DC01ED9165
S1130A70FC910F2EF1E16F2EF02D649CC001659C5A
S1130A80900D11247F92CF92DF927F9365015401E0
S1130A908E0F9F1F0E94C7030F900F900F900F900F
S1130AA0DF91CF911F910F91FF90EF90DF90CF9046
S1130AB0BF90AF909F908F907F906F905F904F907A
S1130AC00895CF93DF93DB01BA01A901EC01E8811A
S1130AD0F98121E12A9FC0012B9F900D11248E0FD3
S1130AE09F1F0E94F403DF91CF9108952CE0FB0136
S1130AF03496DC0101900D922A95E1F70895CF9286
S1130B00DF92EF92FF920F931F93FC017183608336
S1130B101383028355834483F782E68231872087D7
S1130B20D386C2861F910F91FF90EF90DF90CF90F4
S1130B3008954F925F926F927F928F929F92AF929D
S1130B40BF92CF92DF92EF92FF920F931F93CF93B6
S1130B50DF937C016B0129013A01C0E0D0E00F2E44
S1130B60812C912CF0E8AF2EFFE3BF2EF02DD7019E
S1130B7018968D919C911997C817D90750F5FE01C5
S1130B80EE0FFF1FEE0FFF1FEC0DFD1D20813181C5
S1130B90428153811496ED91FC911597CE01880FF3
S1130BA0991FE80FF91F60817181ED91FC91A1E11A
S1130BB0AC9FC001AD9F900D11248E0F9F1F0E940A
S1130BC06105A50194010E9463034B015C01219618
S1130BD0CECFD7011696ED91FC911797C801880FD7
S1130BE0991FE80FF91F608171811296ED91FC91B4
S1130BF0139721E1209FC001219F900D1124A3018F
S1130C0092018E0F9F1F0E9461059B01AC01C501DB
S1130C10B4010E946303DF91CF911F910F91FF9064
S1130C20EF90DF90CF90BF90AF909F908F907F9088
S1130C306F905F904F900895CF93DF93EC01FB0189
S1130C40628173810E947605CE01DF91CF91089570
S1130C50FC01718360835383428308952F923F92F2
S1130C604F925F926F927F928F929F92AF92BF92B8
S1130C70CF92DF92EF92FF920F931F93CF93DF9364
S1130C803C012B0149015A011801C0E0D0E0C12CFC
S1130C90D12C7601D30112968D919C911397C8178C
S1130CA0D907E8F4ED91FC91CE01880F991F8C0FC0
S1130CB09D1F880F991F880F991F8101A501940119
S1130CC0B2018E0F9F1F0E9499059B01AC01C701C1
S1130CD0B6010E9488036B017C012196DBCFC7011A
S1130CE0B601DF91CF911F910F91FF90EF90DF90AC
S1130CF0CF90BF90AF909F908F907F906F905F90B8
S1130D004F903F902F9008952F923F924F925F9271
S1130D106F927F928F929F92AF92BF92CF92DF9207
S1130D20EF92FF920F931F93CF93DF93CDB7DEB76C
S1130D3064970FB6F894DEBF0FBECDBF1C017C8B49
S1130D406B8B5A8B498BFC0160817181CE010196BA
S1130D500E941C06C980DA80EB80FC801D861E86FA
S1130D601F86188A812C912C54012D813E814F813C
S1130D705885C701B6010E944F0D181684F10989E0
S1130D801A89A70196016B897C89C1010E942E06EC
S1130D902B013C019B01AC01C501B4010E94E30C91
S1130DA04B015C01A3019201C701B6010E94B30E7D
S1130DB09B01AC016D857E858F8598890E94E30C2B
S1130DC06D877E878F87988B29853A854B855C85CF
S1130DD0C701B6010E94E30C6B017C01C6CF20E081
S1130DE030E0A901C501B4010E944F0D811108C072
S1130DF00F2E812C912CF0E8AF2EFFE3BF2EF02DA7
S1130E00A50194016D857E858F8598890E94540D76
S1130E1064960FB6F894DEBF0FBECDBFDF91CF91BD
S1130E201F910F91FF90EF90DF90CF90BF90AF9004
S1130E309F908F907F906F905F904F903F902F90F6
S1130E4008951F920F920FB60F9211242F933F9380
S1130E504F935F936F937F938F939F93AF93BF93BE
S1130E60EF93FF9385ED92E00E942D0CFF91EF919B
S1130E70BF91AF919F918F917F916F915F914F91AE
S1130E803F912F910F900FBE0F901F9018951F92B6
S1130E900F920FB60F9211240F900FBE0F901F9058
S1130EA01895FC01708767835287418780E88483A3
S1130EB08583168208950197C1F46F3F7F4FA9F48B
S1130EC060E485ED92E00E946E0B49EC52E065ED22
S1130ED072E08EEB92E00E94510749E050E06CE42E
S1130EE071E080E091E00E9428060895CF93DF939B
S1130EF0EC01188219821A821B820E946000898583
S1130F009A850E94E300DF91CF9108950F931F9378
S1130F10FC010081118122813381400F511F621F26
S1130F20731F4083518362837383413452446F40FF
S1130F30710548F0FC0110821182128213828781AC
S1130F4090850E94160C1F910F9108951F920F9285
S1130F500FB60F9211242F933F934F935F936F9388
S1130F607F938F939F93AF93BF93EF93FF9340E847
S1130F705FE760E070E08EEB92E00E94860780916C
S1130F80BA029091BB02A091BC02B091BD028058FC
S1130F909048AF4FBF4F8093BA029093BB02A09387
S1130FA0BC02B093BD024091B6025091B702609169
S1130FB0B8027091B90284179507A607B70758F0CD
S1130FC0803C26EC92072DE2A207B10520F485B1FE
S1130FD08E7F85B910C0803C964CAD42B10558F067
S1130FE01092BA021092BB021092BC021092BD027F
S1130FF085B1816085B9FF91EF91BF91AF919F91C8
S11310008F917F916F915F914F913F912F910F90AD
S11310100FBE0F901F9018956F927F928F929F92A0
S1131020AF92BF92CF92DF92EF92FF920F931F93F2
S1131030CF93DF93A12C0F2EC12CD12CFFE7EF2EE1
S1131040F3E4FF2EF02D00E010E0980143E050E0BF
S113105063E772E08EE192E00E948A0400E010E00F
S1131060980143E050E060E472E08FE292E00E9475
S11310708A040F2EC12CD12CF0EEEF2EF2E4FF2EB9
S1131080F02D00E010E0980140E060E070E08EE1B7
S113109092E00E94F604D3E4DF93CFE7CF931F924C
S11310A01F920F2E812C912CF0E1AF2EF3E4BF2E72
S11310B0F02D00E010E0980141E061E070E08EE185
S11310C092E00E941A050F2EC12CD12CFFE7EF2EBF
S11310D0F3E4FF2EF02D9501840142E062E070E01C
S11310E08EE192E00E94F6040F2EC12CD12CF0EE7A
S11310F0EF2EF2E4FF2EF02D00E010E0980140E026
S113110060E070E08FE292E00E94F604DF93CF93F8
S11311101F921F9200E010E0980141E061E070E04E
S11311208FE292E00E941A050F2EC12CD12CFFE70A
S1131130EF2EF3E4FF2EF02D9501840142E062E0EE
S113114070E08FE292E00E94F604AA24A3940F2E8A
S1131150C12CD12CF0E2EF2EF1E4FF2EF02D00E0B3
S113116010E0980142E050E06CEF71E088EB91E010
S11311700E948A049701860140E050E0BA0188EB9E
S113118091E00E94C20400E010E0980142E050E0C7
S11311906AED71E089EC91E00E948A04970186016E
S11311A040E050E0BA0189EC91E00E94C20400E002
S11311B010E0980144E060E070E088EB91E00E9468
S11311C0DC049701860144E061E070E088EB91E083
S11311D00E94DC0400E010E0980144E060E070E06C
S11311E089EC91E00E94DC049701860144E061E00F
S11311F070E089EC91E00E94DC046894CC24C1F88E
S1131200D12C0F2EF4E0EF2EF1E0FF2EF02D08EBA1
S113121011E022E030E048E251E06EE172E08CE45B
S113122091E00E947F050F2EF8E2AF2EF1E0BF2E71
S1131230F02DF5011182108213821282E7011982C6
S113124018821B821A820F2EF8E0EF2EF1E0FF2E97
S1131250F02D22E030E04CE251E06EE172E088E5EE
S113126091E00E947F0588248394912CF501958256
S11312708482178216821D821C821F821E820F2E78
S1131280FCE0EF2EF1E0FF2EF02D22E030E040E311
S113129051E06EE172E084E691E00E947F0568947B
S11312A0662461F8712CF5017186608613861286B6
S11312B0198618861B861A860F2EF0E1EF2EF1E0B0
S11312C0FF2EF02D22E030E044E351E06EE172E0C5
S11312D080E791E00E947F05F501158614869786C4
S11312E086861D861C869F868E860F2EF4E1EF2E41
S11312F0F1E0FF2EF02D22E030E048E351E06EE112
S113130072E08CE791E00E947F05F501918A808A62
S1131310938A828A198A188A1B8A1A8A0F2EF8E1FC
S1131320EF2EF1E0FF2EF02D22E030E04CE351E00F
S11313306EE172E088E891E00E947F05F501758A0C
S1131340648A978A868A9D8A8C8A1F8A1E8A0F2EAF
S1131350FCE1EF2EF1E0FF2EF02D22E030E040E43E
S113136051E06EE172E084E991E00E947F05F501AD
S1131370118E108E738E628E198E188E9B8E8A8EAD
S11313800F2EF0E2EF2EF1E0FF2EF02D22E030E000
S113139044E451E06EE172E080EA91E00E947F054E
S11313A0F501958E848E778E668E9D8E8C8E9F8EA3
S11313B08E8E0F2EF4E2EF2EF1E0FF2EF02D22E0C0
S11313C030E048E451E06EE172E08CEA91E00E9482
S11313D07F05F50171A260A273A262A299A288A2FC
S11313E01BA21AA28DB79EB708960FB6F8949EBF9B
S11313F00FBE8DBFDF91CF911F910F91FF90EF90A2
S1131400DF90CF90BF90AF909F908F907F906F9020
S113141008951092BA021092BB021092BC0210926C
S1131420BD0280E291EAA7E0B0E08093B602909317
S1131430B702A093B802B093B902EEEAF2E01082C8
S113144011821282138214821582168217821092DC
S1131450AA021092AB021092AC021092AD0210924A
S1131460A6021092A7021092A8021092A9020E944A
S11314700C0884B1816084B960E679E080E090E092
S11314800E94510B8EEB92E00E94760778940895A7
S1131490CF92DF92EF92FF920F931F93CF93DF933C
S11314A0EC01AC014A5F5F4FBC016C5F7F4F8F81E1
S11314B098850E948D0C882309F4CCC01882198267
S11314C01A821B826C810EEA12E070E080E090E0E8
S11314D00E94FC0DF80160837183828393836D8184
S11314E070E080E090E00E94FC0DF8016483758355
S11314F08683978340E050E0B80180E091E00E9449
S113150084066093AA027093AB028093AC0290931A
S1131510AD0241E050E0B80180E091E00E94840611
S11315206093A6027093A7028093A8029093A902E5
S11315308E8182FF23C040E854E86EE170E040935E
S1131540B6025093B7026093B8027093B9028872DE
S1131550883041F0803261F46D8170E081E00E9456
S1131560680078C06D8170E082E00E94680072C0FB
S113157064EB70E080E00E9468006CC08872883080
S113158041F0803261F468EC70E081E00E94680010
S11315900BC068EC70E082E00E94680005C064EB58
S11315A070E080E00E9468008E8184FF33C080E890
S11315B094E8AEE1B0E08093B6029093B702A093B2
S11315C0B802B093B90220E030E040E251E4609107
S11315D0A6027091A7028091A8029091A9020E948C
S11315E0E30C6B017C0120E030E040E251E46091C7
S11315F0AA027091AB028091AC029091AD020E945C
S1131600E30CAB01BC019701860189859A850E9490
S1131610000120C080E291EAA7E0B0E08093B60226
S11316209093B702A093B802B093B9020091A602B6
S11316301091A7022091A8023091A9024091AA0218
S11316405091AB026091AC027091AD0289859A858C
S11316500E940001DF91CF911F910F91FF90EF90B5
S1131660DF90CF9008950E94090A6EEB70E080E04D
S11316700E94680085B1816085B980E797E10E9486
S1131680CB0C8EEB92E00E94480A84E690E00E9424
S1131690CB0CF7CF6FEF7FEF81E090E00E945B0708
S11316A008959B01AC0160E472E48FE090E00E9435
S11316B0200FDA01C9010197A109B109892F9A2FD5
S11316C0AB2FBB278093C50021502093C40088ED25
S11316D08093C10086E08093C2000895FC01608F6E
S11316E082E080838183118A108A138A128A148A81
S11316F008950F931F93CF93DF9300D000D0CDB7FD
S1131700DEB78C0180E090E0843091054CF4E1E098
S1131710F0E0EC0FFD1FE80FF91F10820196F4CFE3
S1131720E0E0F0E0E830F1050CF047C04981D80171
S113173058969C9121E030E00E2E02C0220F331FF8
S11317400A94E2F7892F90E0822393230E2E02C09D
S1131750959587950A94E2F7842789834A81DB016A
S11317609C91892F90E0822393230E2E02C095959D
S113177087950A94E2F784278A839B8111968C913A
S11317801197482F50E0422353230E2E02C0559543
S113179047950A94E2F749274B834C8112968C9122
S11317A090E0282339230E2E02C0359527950A94FC
S11317B0E2F724272C833196B5CF49819A81292FCA
S11317C030E0220F331F422B9B81292F30E0220F60
S11317D0331F220F331F9C81892F90E0880F991F9C
S11317E0880F991F880F991F242B822B282F30E0F4
S11317F02095309522953295307F3227207F3227ED
S1131800822BFB018483D80158963C9180812181ED
S1131810928183278227892783830F900F900F90CB
S11318200F90DF91CF911F910F910895CF93DF9384
S1131830FC012181222371F0EC01138A128A80E8D1
S1131840878380871186BF01695F7F4FCF010E9424
S1131850790B1982DF91CF910895CF93DF93EC0137
S11318608091C00084FF22C08981813061F0B0F092
S1131870823019F58091C00084708E8B8091C600EF
S113188088E58F8B1AC08091C00084708E8B809104
S1131890C6008F8BCE010E94160C0FC08091C00031
S11318A084708E8B8091C6008F8B07C08091C0009E
S11318B084708E8B8091C6008F8B8981813079F002
S11318C0823041F59F89888D981324C08E898111B7
S11318D021C01B8A1A8A1D8A81E089831BC08A89D8
S11318E09B892F89FE01E80FF91F27832E89222364
S11318F059F04D8921E030E0082E02C0220F331F39
S11319000A94E2F7242B2D8B01969B8B8A8B0597E7
S113191008F01982DF91CF910895EF92FF920F930F
S11319201F93CF93DF93FC01218121112CC07A01F5
S11319308B01EC018285868783858787BF01695F78
S11319407F4FCF010E94790B9E858A8589278E87D8
S11319502F859B8592279F87811111C091110FC0FC
S11319608D8981110CC08F81F801808388858183E2
S11319708985F701808382E0898381E005C082E064
S1131980898380E001C080E0DF91CF911F910F91A6
S1131990FF90EF900895AC0120E030E02417350764
S11319A080F496E09093B20094E09093B100B89BD9
S11319B0FECF1092B10097B3916097BB2F5F3F4F5A
S11319C0EDCF08955058BB27AA270E94FA0C0C9417
S11319D0740E0E94660E38F00E946D0E20F039F4E9
S11319E09F3F19F426F40C94630E0EF4E095E7FB84
S11319F00C945D0EE92F0E94850E58F3BA17620706
S1131A0073078407950720F079F4A6F50C94A70EC4
S1131A100EF4E0950B2EBA2FA02D0B01B901900105
S1131A200C01CA01A0011124FF27591B99F0593F49
S1131A3050F4503E68F11A16F040A22F232F342F91
S1131A404427585FF3CF469537952795A795F040DF
S1131A505395C9F77EF41F16BA0B620B730B840BF4
S1131A60BAF09150A1F0FF0FBB1F661F771F881FAC
S1131A70C2F70EC0BA0F621F731F841F48F4879504
S1131A8077956795B795F7959E3F08F0B0CF9395F6
S1131A90880F08F09927EE0F9795879508950E946F
S1131AA0390E08F481E008950E94680D0C94740EB8
S1131AB00E946D0E58F00E94660E40F029F45F3FBC
S1131AC029F00C945D0E51110C94A80E0C94630E25
S1131AD00E94850E68F39923B1F3552391F3951B66
S1131AE0550BBB27AA2762177307840738F09F5F3B
S1131AF05F4F220F331F441FAA1FA9F335D00E2EA8
S1131B003AF0E0E832D091505040E695001CCAF714
S1131B102BD0FE2F29D0660F771F881FBB1F2617D7
S1131B2037074807AB07B0E809F0BB0B802DBF01AE
S1131B30FF2793585F4F3AF09E3F510578F00C947D
S1131B405D0E0C94A80E5F3FE4F3983ED4F38695A3
S1131B5077956795B795F7959F5FC9F7880F911D9E
S1131B609695879597F90895E1E0660F771F881F8A
S1131B70BB1F621773078407BA0720F0621B730B3D
S1131B80840BBA0BEE1F88F7E09508950E94CD0DE3
S1131B906894B1110C94A80E08950E948D0E88F0DB
S1131BA09F5798F0B92F9927B751B0F0E1F0660F1D
S1131BB0771F881F991F1AF0BA95C9F714C0B1305E
S1131BC091F00E94A70EB1E008950C94A70E672F20
S1131BD0782F8827B85F39F0B93FCCF3869577958D
S1131BE06795B395D9F73EF4909580957095619576
S1131BF07F4F8F4F9F4F0895E89409C097FB3EF4A1
S1131C0090958095709561957F4F8F4F9F4F992345
S1131C10A9F0F92F96E9BB279395F69587957795C3
S1131C206795B795F111F8CFFAF4BB0F11F460FF83
S1131C301BC06F5F7F4F8F4F9F4F16C0882311F0DB
S1131C4096E911C0772321F09EE8872F762F05C0EF
S1131C50662371F096E8862F70E060E02AF09A958A
S1131C60660F771F881FDAF7880F9695879597F97F
S1131C700895990F0008550FAA0BE0E8FEEF161619
S1131C801706E807F907C0F012161306E407F5076C
S1131C9098F0621B730B840B950B39F40A2661F0E0
S1131CA0232B242B252B21F408950A2609F4A14083
S1131CB0A6958FEF811D811D089597F99F6780E890
S1131CC070E060E008959FEF80EC089500240A948A
S1131CD01616170618060906089500240A94121603
S1131CE01306140605060895092E0394000C11F436
S1131CF0882352F0BB0F40F4BF2B11F460FF04C0E3
S1131D006F5F7F4F8F4F9F4F089557FD9058440F3B
S1131D10551F59F05F3F71F04795880F97FB991F46
S1131D2061F09F3F79F08795089512161306140603
S1131D30551FF2CF4695F1DF08C016161706180690
S1131D40991FF1CF86957105610508940895E8946B
S1131D50BB2766277727CB0197F908950E94390E90
S1131D6008F48FEF08950E94C60E0C94740E0E941E
S1131D70660E38F00E946D0E20F0952311F00C943D
S1131D805D0E0C94630E11240C94A80E0E94850E13
S1131D9070F3959FC1F3950F50E0551F629FF001BA
S1131DA0729FBB27F00DB11D639FAA27F00DB11DD3
S1131DB0AA1F649F6627B00DA11D661F829F22275C
S1131DC0B00DA11D621F739FB00DA11D621F839FE3
S1131DD0A00D611D221F749F3327A00D611D231FB9
S1131DE0849F600D211D822F762F6A2F11249F5707
S1131DF050409AF0F1F088234AF0EE0FFF1FBB1F0A
S1131E00661F771F881F91505040A9F79E3F5105C8
S1131E1080F00C945D0E0C94A80E5F3FE4F3983EA2
S1131E20D4F3869577956795B795F795E7959F5F72
S1131E30C1F7FE2B880F911D9695879597F9089504
S1131E40A1E21A2EAA1BBB1BFD010DC0AA1FBB1FBA
S1131E50EE1FFF1FA217B307E407F50720F0A21B2C
S1131E60B30BE40BF50B661F771F881F991F1A9499
S1131E7069F760957095809590959B01AC01BD01C3
S1131E80CF010895EE0FFF1F0590F491E02D099402
S1071E90F894FFCFF0
S9030000FC
