:100000000C94F6000C941E010C941E010C941E011D
:100010000C941E010C941E010C941E010C941E01E4
:100020000C941E010C941E010C941E010C941E01D4
:100030000C941E010C941E010C941E010C941E01C4
:100040000C941E010C941E010C94EE050C941E01E0
:100050000C9414060C941E010C941E010C941E01A9
:100060000C9455050C941E011402420542054205EC
:10007000420542054205420531024205420542055C
:1000800042054205420542054E024205420542052F
:1000900042054205420542056E02420542054205FF
:1000A00042054205420542058202420542054205DB
:1000B0004205420542054205B50242054205420598
:1000C0004205420542054205C90242054205420574
:1000D0004205420542054205F50242054205420538
:1000E00042054205420542050F034205420542050D
:1000F00042054205420542052303420542054205E9
:100100004205420542054205660342054205420595
:1001100042054205420542057B0342054205420570
:10012000420542054205420581034205420542055A
:100130004205420542054205870342054205420544
:1001400042054205420542058D034205420542052E
:100150004205420542054205930342054205420518
:100160004205420542054205BC03420542054205DF
:100170004205420542054205E803420542054205A3
:100180004205420542054205080442054205420572
:1001900042054205420542052B044205420542053F
:1001A0004205420542054205350442054205420525
:1001B00042054205420542058904420542054205C1
:1001C0004205420542054205DD044205420542055D
:1001D00042054205420542052E05420542054205FB
:1001E000420542054205420538053A0611241FBE64
:1001F000CFEFD8E0DEBFCDBF11E0A0E0B1E0E2E696
:10020000F0E102C005900D92AE30B107D9F721E0C0
:10021000AEE0B1E001C01D92A637B207E1F710E0F1
:10022000C6EFD0E004C02197FE010E942908C53F17
:10023000D107C9F70E94A9050C942F080C9400005F
:10024000CF93C42FE9EBF0E020812C7F20839B012A
:10025000AC01220F331F441F551F60E074E284EF8E
:1002600090E00E940708BA01A901485051096109AC
:1002700071094F3F510561057105E1F1D8F1E9EBD5
:10028000F0E080818C7F81608083DB01CA01B695BC
:10029000A79597958795B695A795979587958F3F3D
:1002A0009105A105B10509F100F180818C7F826083
:1002B0008083DB01CA01689413F8B695A7959795DA
:1002C00087951694D1F78F3F9105A105B10581F06F
:1002D00078F0808183608083689415F876956795BF
:1002E000579547951694D1F705C0AC01BD0102C0E2
:1002F000AC01BD014093B8008C2F90E0880F991F8E
:1003000081608093BA00C0934C0185E48093BC0067
:10031000CF910895ECEBF0E080818B74846A808348
:10032000089588E080930001ECEBF0E080818B740D
:10033000846980830895880F8093BB001092000128
:10034000ECEBF0E080818B74846880830895809367
:10035000BB00ECEBF0E080818B74846880830895AF
:100360009C01909100019830A9F4309342012093B0
:1003700041011092400110923F0140933E01709361
:100380003D0160933C0181E0809300010E948A015D
:1003900081E0089580E0089590E0880F991F8160C2
:1003A0008093BB0082E080930001ECEBF0E0808161
:1003B0008B748468808308959091BB00813039F4F8
:1003C000ECEBF0E080818B708468808311C0811138
:1003D00007C0ECEBF0E080818B70846C808308C0F8
:1003E000823031F4ECEBF0E080818B70846D80839F
:1003F000892F0895ECEBF0E080818F72806C808310
:100400000895CF93DF938091B900887F80934B014B
:10041000482F50E0FA013897E13CF10508F032C36B
:10042000EC5CFF4F0C94290880910001813019F099
:10043000833041F00FC01092000180913E010E9474
:100440009B0130C382E08093000180913E010E94B5
:10045000CC0128C388E08093000180E00E94CC0199
:1004600021C380910001813019F0833041F00FC029
:100470001092000180913E010E949B0113C382E013
:100480008093000180913E010E94CC010BC388E063
:100490008093000180E00E94CC0104C380913F0161
:1004A0009091400120913C0130913D0182179307CA
:1004B00008F0F8C22091410130914201F901E80FA2
:1004C000F91F80810E94A70180913F019091400116
:1004D00001969093400180933F01E4C21092420143
:1004E000109241011092400110923F0110923D0183
:1004F00010923C0110923E0188E0809300010E941E
:100500009101D0C280913F019091400120913C0126
:1005100030913D0182179307A0F420914101309161
:100520004201F901E80FF91F80810E94A701809123
:100530003F019091400101969093400180933F01CB
:10054000B1C21092420110924101109240011092EA
:100550003F0110923D0110923C0110923E0188E053
:10056000809300010E9491019DC21092420110925D
:1005700041011092400110923F0110923D011092F2
:100580003C0110923E0188E0809300010E9491019D
:1005900089C28091000181110EC010924001109219
:1005A0003F0181E080930001ECEBF0E080818B74EF
:1005B000846A80830FC0823069F4109244011092E3
:1005C000430183E080930001ECEBF0E080818B74C9
:1005D000846A80838091BC0088230CF063C2ECEBBA
:1005E000F0E08081806880835DC28091000182306C
:1005F00039F4ECEBF0E080818B70846C808304C074
:10060000883011F40E9491018091BC0088230CF085
:1006100049C2ECEBF0E080818068808343C2109295
:100620004801109247011092460110924501109224
:1006300044011092430110923E0188E08093000132
:100640000E9491012FC22091450130914601225014
:100650003109809143019091440182179307A0F4DE
:10066000C0914701D0914801C80FD91F80E00E9476
:10067000DC0188838091430190914401019690931D
:100680004401809343010EC228173907A1F4C09199
:100690004701D0914801C80FD91F81E00E94DC01B9
:1006A0008883809143019091440101969093440185
:1006B00080934301F7C1C0914701D0914801C80F11
:1006C000D91F82E00E94DC018883ECC188E080931E
:1006D00000011092480110924701109246011092B9
:1006E0004501109244011092430110923E0182E0B4
:1006F0000E94DC01D7C186E0809300010E94FA01CC
:10070000D1C186E0809300010E94FA01CBC187E04D
:10071000809300010E94FA01C5C187E08093000127
:100720000E94FA01BFC1809124019091250184317A
:10073000910560F42091BB00FC01EA5DFE4F20832F
:100740000196909325018093240106C084E190E0F6
:100750009093250180932401E0913A01F0913B01AF
:10076000309719F08091BB000995ECEBF0E08081A7
:100770008B72846C808396C18091240190912501B5
:100780008431910560F42091BB00FC01EA5DFE4FCD
:1007900020830196909325018093240106C084E173
:1007A00090E09093250180932401E0913A01F0912B
:1007B0003B01309719F08091BB00099588E0809348
:1007C0000001ECEBF0E080818B70846C80836AC167
:1007D00080912401909125018431910560F420914C
:1007E000BB00FC01EA5DFE4F20830196909325013A
:1007F0008093240106C084E190E0909325018093CA
:100800002401ECEBF0E080818B72846C80834AC120
:1008100080912401909125018431910560F420910B
:10082000BB00FC01EA5DFE4F2083019690932501F9
:100830008093240106C084E190E090932501809389
:10084000240188E080930001ECEBF0E080818B7064
:10085000846C808327C188E080930001ECEBF0E09A
:1008600080818B70846C80831DC184E08093000143
:1008700080910E0190910F018230910548F1809195
:1008800010018093BB0020E080910E0190910F0138
:100890000197422F50E04817590758F4CA01FC014C
:1008A000EF5EFE4F3081FC01E05FFE4F30832F5F33
:1008B000EBCFFC01E05FFE4F108290930F0180931D
:1008C0000E01ECEBF0E080818B72846C8083EAC0D7
:1008D0000197B1F4E0E1F1E080818093BB001082E8
:1008E00080910E0190910F01019790930F018093D9
:1008F0000E01ECEBF0E080818B7284688083D2C0C3
:100900001092BB00ECEBF0E080818B7284688083F6
:10091000C9C084E08093000180910E0190910F0185
:100920008230910548F1809110018093BB0020E056
:1009300080910E0190910F010197422F50E04817CE
:10094000590758F4CA01FC01EF5EFE4F3081FC01EB
:10095000E05FFE4F30832F5FEBCFFC01E05FFE4F87
:10096000108290930F0180930E01ECEBF0E08081F8
:100970008B72846C808396C00197B1F4E0E1F1E062
:1009800080818093BB00108280910E0190910F01B5
:10099000019790930F0180930E01ECEBF0E08081C2
:1009A0008B72846880837EC01092BB00ECEBF0E019
:1009B00080818B728468808375C080910E019091D4
:1009C0000F018230910548F1809110018093BB00A6
:1009D00020E080910E0190910F010197422F50E08D
:1009E0004817590758F4CA01FC01EF5EFE4F3081E9
:1009F000FC01E05FFE4F30832F5FEBCFFC01E05F37
:100A0000FE4F108290930F0180930E01ECEBF0E00B
:100A100080818B72846C808345C00197B1F4E0E1E2
:100A2000F1E080818093BB00108280910E01909153
:100A30000F01019790930F0180930E01ECEBF0E012
:100A400080818B72846880832DC01092BB00ECEB98
:100A5000F0E080818B728468808324C088E080937A
:100A60000001ECEBF0E080818B70846C80831AC015
:100A70001092BB00ECEBF0E080818B70846C808383
:100A8000808310C0E0914901F0914A01309709F04C
:100A900009958091BC0088232CF4ECEBF0E0808178
:100AA00080688083DF91CF9108951F920F920FB6D7
:100AB0000F9211242F933F934F935F936F937F93E4
:100AC0008F939F93AF93BF93EF93FF930E94010285
:100AD000FF91EF91BF91AF919F918F917F916F9116
:100AE0005F914F913F912F910F900FBE0F901F90EC
:100AF0001895019741F46F3F7F4F29F460E48DE52D
:100B000091E00E947806089510925C0110925B01BA
:100B100010925A01109259011092580110925701E7
:100B200010925601109255011092540160E679E03E
:100B300080E090E00E94410681E091E00E9465061D
:100B400040E460EA76E881E090E00E942001789439
:100B500008950E9484054AE551E06BE571E08DE55A
:100B600091E00E94C907809353018823A1F320914B
:100B70005801309159012F5F3F4F30935901209315
:100B8000580140915B0150915C01BA01621B730BEB
:100B90009B017093570160935601803849F480910E
:100BA0005401909155010196909355018093540101
:100BB000EDE4F1E05183408333832283809154013B
:100BC000909155019583848341E466E070E08DE463
:100BD00091E00E94B0018823B9F3BDCF1F920F921C
:100BE0000FB60F9211242F933F934F935F936F9300
:100BF0007F938F939F93AF93BF93EF93FF938DE575
:100C000091E00E946907FF91EF91BF91AF919F9191
:100C10008F917F916F915F914F913F912F910F90A5
:100C20000FBE0F901F9018951F920F920FB60F9244
:100C300011242F933F934F935F936F937F938F93E1
:100C40009F93AF93BF93EF93FF938DE591E00E9445
:100C50002007FF91EF91BF91AF919F918F917F916D
:100C60006F915F914F913F912F910F900FBE0F9019
:100C70001F9018956FEF7FEF81E090E00E9479055B
:100C800008959B01AC0160E472E48FE090E00E9463
:100C90000708DA01C9010197A109B109892F9A2F23
:100CA000AB2FBB278093C50021502093C40088ED53
:100CB0008093C10086E08093C20008959091C000A7
:100CC00095FFFCCF8093C60008950F931F93CF9399
:100CD0008C01C0E0F801EC0FF11D8081882321F028
:100CE0000E945E06CF5FF6CFCF911F910F910895BE
:100CF000FC01608F82E080838183118A108A138ACD
:100D0000128A148A08950F931F93CF93DF9300D014
:100D100000D0CDB7DEB78C0180E090E08430910543
:100D20004CF4E1E0F0E0EC0FFD1FE80FF91F10823A
:100D30000196F4CFE0E0F0E0E830F1050CF047C0B8
:100D40004981D80158969C9121E030E00E2E02C0D6
:100D5000220F331F0A94E2F7892F90E08223932316
:100D60000E2E02C0959587950A94E2F78427898311
:100D70004A81DB019C91892F90E0822393230E2EE0
:100D800002C0959587950A94E2F784278A839B8110
:100D900011968C911197482F50E0422353230E2E29
:100DA00002C0559547950A94E2F749274B834C8139
:100DB00012968C9190E0282339230E2E02C035958F
:100DC00027950A94E2F724272C833196B5CF4981E1
:100DD0009A81292F30E0220F331F422B9B81292F2C
:100DE00030E0220F331F220F331F9C81892F90E0A8
:100DF000880F991F880F991F880F991F242B822B0A
:100E0000282F30E02095309522953295307F32277B
:100E1000207F3227822BFB018483D80158963C9196
:100E200080812181928183278227892783830F9064
:100E30000F900F900F90DF91CF911F910F91089518
:100E4000CF93DF93EC018881813069F018F0823014
:100E5000E9F025C081E08883198A188A1C8A888D68
:100E60000E945E061CC0E889F989EC0FFD1F828193
:100E70000E945E06888999890196998B888B0597CF
:100E800070F0198A188A82E0888309C08C898430BE
:100E900030F488E50E945E068C898F5F8C8BDF9131
:100EA000CF910895CF93DF93FC012181222371F02C
:100EB000EC01138A128A80E8878380871186BF013C
:100EC000695F7F4FCF010E9483061982DF91CF9126
:100ED0000895CF93DF93EC018091C00084FF22C07E
:100EE0008981813061F0B0F0823019F58091C000C5
:100EF00084708E8B8091C60088E58F8B1AC080919C
:100F0000C00084708E8B8091C6008F8BCE010E94B2
:100F100052070FC08091C00084708E8B8091C600F4
:100F20008F8B07C08091C00084708E8B8091C6002B
:100F30008F8B8981813079F0823041F59F89888D4E
:100F4000981324C08E89811121C01B8A1A8A1D8A98
:100F500081E089831BC08A899B892F89FE01E80F64
:100F6000F91F27832E89222359F04D8921E030E093
:100F7000082E02C0220F331F0A94E2F7242B2D8B78
:100F800001969B8B8A8B059708F01982DF91CF9190
:100F90000895EF92FF920F931F93CF93DF93FC017D
:100FA000218121112CC07A018B01EC018285868779
:100FB00083858787BF01695F7F4FCF010E948306CA
:100FC0009E858A8589278E872F859B8592279F8777
:100FD000811111C091110FC08D8981110CC08F81B9
:100FE000F8018083888581838985F701808382E089
:100FF000898381E005C082E0898380E801C080E0C8
:10100000DF91CF911F910F91FF90EF900895A1E292
:101010001A2EAA1BBB1BFD010DC0AA1FBB1FEE1F72
:10102000FF1FA217B307E407F50720F0A21BB30BBD
:10103000E40BF50B661F771F881F991F1A9469F739
:1010400060957095809590959B01AC01BD01CF0195
:101050000895EE0FFF1F0590F491E02D0994F89488
:02106000FFCFC0
:0E1062000848656C6C6F20576F726C6421003B
:00000001FF
