:100000000C9435000C945D000C945D000C945D0024
:100010000C945D000C945D000C945D000C945D00EC
:100020000C945D000C945D000C945D000C945D00DC
:100030000C945D000C9422010C945D000C945D0006
:100040000C945D000C945D000C9418010C945D0000
:100050000C94F2000C945B010C945D000C945D0018
:100060000C945D000C945D00B90111241FBECFEF0C
:10007000D8E0DEBFCDBF11E0A0E0B1E0E2ECF4E0FB
:1000800002C005900D92AE30B107D9F721E0AEE085
:10009000B1E001C01D92AA32B207E1F710E0C5E35A
:1000A000D0E004C02197FE010E945902C433D10759
:1000B000C9F70E9489010C945F020C9400008FE93B
:1000C0009FE0909387008093860082E08093800079
:1000D000E1E8F0E088E1808381E080936F00109296
:1000E000850010928400808182608083089580E67C
:1000F00080937C008FEA80937A0086E080937B0077
:1001000087B18E7F87B983E080937E000895ECE706
:10011000F0E09081907F8F70892B80830895FC019F
:1001200080E8808381831282138280E00E948700AE
:1001300008958AB183708AB98BB183708BB90E949C
:100140005F000E947700EAE7F0E0808180648083AE
:100150000895FC018381882319F0813069F00895A6
:100160008091780080930E0180917900808381E0F6
:1001700083830E94870008958091780080930E0108
:10018000809179008183138280E00E948700089526
:1001900029B120952C7FFC0122830895FC018081E8
:1001A0000895FC0181810895FC01828108950197E1
:1001B00039F46F3F7F4F21F48FE091E00E948F0070
:1001C000089581E08093250184B983E191E00E9444
:1001D00007028FE091E00E94990078948AE00E94E3
:1001E000E70108951F920F920FB60F9211242F93DB
:1001F0003F934F935F936F937F938F939F93AF93AF
:10020000BF93EF93FF9383E191E00E943202FF914D
:10021000EF91BF91AF919F918F917F916F915F917E
:100220004F913F912F910F900FBE0F901F901895F7
:100230001F920F920FB60F9211240F900FBE0F90C6
:100240001F9018951F920F920FB60F9211242F93A3
:100250003F934F935F936F937F938F939F93AF934E
:10026000BF93EF93FF938091260190912701A09176
:100270002801B09129010296A11DB11D809326018C
:1002800090932701A0932801B09329018FE091E07A
:100290000E94C800FF91EF91BF91AF919F918F9104
:1002A0007F916F915F914F913F912F910F900FBE72
:1002B0000F901F9018951F920F920FB60F92112456
:1002C0002F933F934F935F936F937F938F939F935E
:1002D000AF93BF93EF93FF9385B125B191E0922740
:1002E00091708E7F892B85B98FE091E00E94A900E3
:1002F000FF91EF91BF91AF919F918F917F916F91FE
:100300005F914F913F912F910F900FBE0F901F90D3
:1003100018950E94E10080E091E00E94EE0180913A
:10032000260190912701A0912801B0912901899778
:10033000A105B105A0F31092260110922701109299
:100340002801109229018FE091E00E94D400D82F5B
:100350008FE091E00E94D100C82F8FE091E00E94D1
:10036000CE002D2F4C2F682F83E191E00E941602C2
:10037000D6CF6FEF7FEF81E090E00E94D700089525
:1003800081E08093C5008FE98093C400E1ECF0E048
:1003900088E180838081808386E08093C2008091A1
:1003A000C00088232CF4E0ECF0E08081806880833A
:1003B0008091C00086FF05C0E0ECF0E080818064A1
:1003C0008083E1ECF0E08081806C808308959091DF
:1003D000C00095FFFCCF8093C60008950F931F9334
:1003E000CF93DF938C01C0E0D0E0F801EC0FFD1F4C
:1003F0008081882321F00E94E7012196F6CFDF91CA
:10040000CF911F910F910895862F84270895CF9340
:10041000DF93EC010E94C0011F861E86198A188A8C
:1004200082E088838983DF91CF9108951F93CF93D2
:10043000DF93FC013081323089F4122FEC011786F2
:100440001686628343832C830E9404028D83412F8E
:10045000682FCE010E9404028D831882DF91CF9114
:100460001F910895CF93DF93EC018881813051F083
:1004700018F08230C1F01AC081E0888380E40E94C5
:10048000E70114C0EE85FF85EC0FFD1F82810E94FD
:10049000E7018E859F8501969F878E87049730F0B0
:1004A00082E0888303C08FEF0E94E701DF91CF9144
:1004B0000895EE0FFF1F0590F491E02D0994F89434
:0204C000FFCF6C
:0E04C20048656C6C6F20576F726C64210000EF
:00000001FF
