S029000053697374656D2050656E67676572616B202D205472616E736D69747465722076322E7372656300
S11300000C9435000C945D000C945D000C945D0020
S11300100C945D000C945D000C945D000C945D00E8
S11300200C945D000C945D000C945D000C945D00D8
S11300300C945D000C9446010C945D000C945D00DE
S11300400C945D000C945D000C943C010C945D00D8
S11300500C9416010C9492010C945D000C945D00B8
S11300600C945D000C945D00020211241FBECFEFBE
S1130070D8E0DEBFCDBF11E0A0E0B1E0EAEBF6E0EE
S113008002C005900D92AE30B107D9F721E0AEE081
S1130090B1E001C01D92A733B207E1F710E0C5E358
S11300A0D0E004C02197FE010E945503C433D10758
S11300B0C9F70E94B8010C945B030C9400008FE90B
S11300C09FE0909387008093860082E08093800075
S11300D0E1E8F0E088E1808381E080936F00109292
S11300E0850010928400808182608083089580E678
S11300F080937C008FEA80937A0086E080937B0073
S113010087B18E7F87B983E080937E000895ECE702
S1130110F0E09081907F8F70892B80830895FC019B
S113012080E8808381831282138280E00E948700AA
S113013008958AB183708AB98BB183708BB90E9498
S11301405F000E947700EAE7F0E0808180648083AA
S11301500895FC018381882319F0813069F00895A2
S11301608091780080930E0180917900808381E0F2
S113017083830E94870008958091780080930E0104
S1130180809179008183138280E00E948700089522
S113019029B120952C7FFC0122830895FC018081E4
S11301A00895FC0181810895FC01828108950197DD
S11301B061F46F3F7F4F49F460E483E191E00E9472
S11301C040028FE091E00E948F0008951092330165
S11301D010923401109235011092360110922F01C1
S11301E010923001109231011092320110922E01BE
S11301F010922D0181E080932C0184B1816084B937
S113020085B18E7F85B960E679E080E090E00E9458
S1130210090280E091E00E942D028FE091E00E94AB
S1130220990078948AE00E94260208951F920F9202
S11302300FB60F9211242F933F934F935F936F93B5
S11302407F938F939F93AF93BF93EF93FF9383E138
S113025091E00E940103FF91EF91BF91AF919F91B3
S11302608F917F916F915F914F913F912F910F905B
S11302700FBE0F901F9018951F920F920FB60F92FA
S113028011240F900FBE0F901F9018951F920F927C
S11302900FB60F9211242F933F934F935F936F9355
S11302A07F938F939F93AF93BF93EF93FF9380912B
S11302B0330190913401A0913501B0913601029639
S11302C0A11DB11D8093330190933401A093350196
S11302D0B093360180912F0190913001A0913101AA
S11302E0B09132010296A11DB11D80932F0190930C
S11302F03001A0933101B09332018FE091E00E946C
S1130300C800FF91EF91BF91AF919F918F917F9121
S11303106F915F914F913F912F910F900FBE0F906E
S11303201F9018951F920F920FB60F9211242F93BE
S11303303F934F935F936F937F938F939F93AF9369
S1130340BF93EF93FF938FE091E00E94A900FF9188
S1130350EF91BF91AF919F918F917F916F915F9139
S11303604F913F912F910F900FBE0F901F901895B2
S11303700E94E6008091330190913401A0913501EF
S1130380B0913601893C9105A105B105E8F01092C0
S113039033011092340110923501109236018FE02E
S11303A091E00E94D400D82F8FE091E00E94D10008
S11303B0C82F8FE091E00E94CE002D2F4C2F682F84
S11303C083E191E00E94E80280912F019091300135
S11303D0A0913101B0913201883E9340A105B1054D
S11303E048F210922F0110923001109231011092B4
S11303F0320185B125B191E0922791708E7F892BCE
S113040085B9B8CF6FEF7FEF81E090E00E94D7000D
S113041008959B01AC0160E472E48FE090E00E94D7
S11304203303DA01C9010197A109B109892F9A2F70
S1130430AB2FBB278093C50021502093C40088EDC7
S11304408093C10086E08093C20008959091C0001B
S113045095FFFCCF8093C60008950F931F93CF930D
S11304608C01C0E0F801EC0FF11D8081882321F09C
S11304700E942602CF5FF6CFCF911F910F9108956E
S1130480FC01608F82E080838183118A108A138A41
S1130490128A148A08950F931F93CF93DF9300D089
S11304A000D0CDB7DEB78C0180E090E084309105B8
S11304B04CF4E1E0F0E0EC0FFD1FE80FF91F1082AF
S11304C00196F4CFE0E0F0E0E830F1050CF047C02D
S11304D04981D80158969C9121E030E00E2E02C04B
S11304E0220F331F0A94E2F7892F90E0822393238B
S11304F00E2E02C0959587950A94E2F78427898386
S11305004A81DB019C91892F90E0822393230E2E54
S113051002C0959587950A94E2F784278A839B8184
S113052011968C911197482F50E0422353230E2E9D
S113053002C0559547950A94E2F749274B834C81AD
S113054012968C9190E0282339230E2E02C0359503
S113055027950A94E2F724272C833196B5CF498155
S11305609A81292F30E0220F331F422B9B81292FA0
S113057030E0220F331F220F331F9C81892F90E01C
S1130580880F991F880F991F880F991F242B822B7E
S1130590282F30E02095309522953295307F3227F0
S11305A0207F3227822BFB018483D80158963C910B
S11305B080812181928183278227892783830F90D9
S11305C00F900F900F90DF91CF911F910F9108958D
S11305D0CF93DF93FC013081323079F4EC016283F4
S11305E043832483BC016E5F7F4F0E944B021882B9
S11305F08AE00E94260281E001C080E0DF91CF9171
S11306000895CF93DF93EC018881813069F018F06D
S11306108230E9F025C081E08883198A188A1C8A0F
S1130620888D0E9426021CC0E889F989EC0FFD1F01
S113063082810E942602888999890196998B888BE8
S1130640059770F0198A188A82E0888309C08C891A
S1130650833030F48AE00E9426028C898F5F8C8B71
S1130660DF91CF910895A1E21A2EAA1BBB1BFD01B5
S11306700DC0AA1FBB1FEE1FFF1FA217B307E4077D
S1130680F50720F0A21BB30BE40BF50B661F771FD5
S1130690881F991F1A9469F76095709580959095B5
S11306A09B01AC01BD01CF010895EE0FFF1F059022
S10D06B0F491E02D0994F894FFCFB3
S11106BA48656C6C6F20576F726C64210000F1
S9030000FC
