:100000000C9435000C945D000C945D000C945D0024
:100010000C945D000C945D000C945D000C945D00EC
:100020000C945D000C9478010C945D000C945D00C0
:100030000C945D000C945D000C945D000C945D00CC
:100040000C945D000C945D000C94B4010C945D0064
:100050000C94DA010C945D000C945D000C945D002E
:100060000C945D000C945D00610211241FBECFEF63
:10007000D8E0DEBFCDBF11E0A0E0B1E0EAECF8E0EF
:1000800002C005900D92A030B107D9F721E0A0E0A1
:10009000B1E001C01D92A932B207E1F710E0C5E35B
:1000A000D0E004C02197FE010E945D04C433D10753
:1000B000C9F70E94E4010C9463040C940000E1EB86
:1000C000F0E010821092B20080E88093B40083E0E8
:1000D0008093B00087E0808381E080937000089572
:1000E0000E945F008AB188698AB9E0EBF0E0808104
:1000F0008F7C806280830895813041F018F08230D7
:1001000061F011C08BB18F768BB90DC08BB180615E
:100110008BB98BB18F778BB906C08BB18F7E8BB9C2
:100120008BB180688BB96093B4000895A0E8B0E00B
:100130001C92E1E8F0E010828C9182608C938081C7
:10014000886180838C91806A8C938FE39CE9909383
:10015000870080938600109285001092840088EBBF
:100160009BE0909389008093880090938B0080930C
:100170008A00808182608083089584B1866084B91A
:100180000E9496000895603A8FE0780738F080EA80
:100190009FE090938900809388000FC0613D87E0C5
:1001A000780738F480ED97E0909389008093880079
:1001B00004C07093890060938800403A8FE058072C
:1001C00038F080EA9FE090938B0080938A00089536
:1001D000413D87E0580738F480ED97E090938B001D
:1001E00080938A00089550938B0040938A0008956D
:1001F000CF93DF93EC0188EB9BE0998388839B830B
:100200008A831C821D821E821F82188619861A8686
:100210001B860E94BD004A815B8168817981CE0185
:100220000E94C300DF91CF9108958F929F92AF9269
:10023000BF92EF92FF920F931F93CF93DF937C01B6
:10024000CB01BA014801590120E030E040E251E41D
:100250000E94C8030E946903EB01C854D44F20E0F8
:1002600030E040E251E4C501B4010E94C8030E949D
:100270006903AB014854544FBE01C7010E94C3003B
:10028000DF91CF911F910F91FF90EF90BF90AF90B2
:100290009F908F900895019789F46F3F7F4F71F47D
:1002A000E0E0F1E087E191E0908787838BE091E0E7
:1002B0009287818780E88483858316820895CF930F
:1002C000DF9384B1806284B9C0E0D1E018821982E2
:1002D0001A821B820E9470008F8198850E94920270
:1002E00089859A850E94F8007894DF91CF910895CE
:1002F0001F920F920FB60F9211242F933F934F939B
:100300005F936F937F938F939F93AF93BF93EF937D
:10031000FF93E0E0F1E080819181A281B381905C64
:10032000AF4FBF4F80839183A283B38381349244C4
:10033000AF40B10540F01082118212821382878192
:1003400090850E94A102FF91EF91BF91AF919F9183
:100350008F917F916F915F914F913F912F910F906E
:100360000FBE0F901F9018951F920F920FB60F920D
:1003700011242F933F934F935F936F937F938F93AA
:100380009F93AF93BF93EF93FF9387E191E00E9418
:10039000BE02FF91EF91BF91AF919F918F917F919D
:1003A0006F915F914F913F912F910F900FBE0F90E2
:1003B0001F9018951F920F920FB60F9211240F9055
:1003C0000FBE0F901F9018950E945F016EEB70E0BA
:1003D00080E00E947C0085B1806285B980E797E16A
:1003E0000E94550346E051E064E071E0809107010E
:1003F000909108010E941D03882309F45DC0E0E08C
:10040000F1E0108211821282138286818872883014
:1004100041F0803261F46EEB70E081E00E947C007C
:100420000BC06EEB70E082E00E947C0005C06EEBBA
:1004300070E080E00E947C008091060184FF31C062
:1004400080910401803470F400E010E020E231E497
:1004500040E050E0BA018091090190910A010E94A8
:1004600015012AC0813C70F000E010E0980140E0E6
:1004700050E060EC70E48091090190910A010E94C3
:1004800015011AC000E010E020E231E440E050E045
:1004900060EC70E48091090190910A010E941501BD
:1004A0000BC000E010E09801B901A801809109019A
:1004B00090910A010E94150184E690E00E94550384
:1004C00091CF6FEF7FEF81E090E00E944B010895A4
:1004D00081E08093C5008FE98093C400E1ECF0E0F7
:1004E00088E180838081808386E08093C200809150
:1004F000C00088232CF4E0ECF0E0808180688083E9
:100500008091C00086FF05C0E0ECF0E0808180644F
:100510008083E1ECF0E08081806C80830895862FF9
:1005200084270895CF93DF93EC010E9468021F8611
:100530001E86198A188A82E088838983DF91CF9189
:100540000895CF93DF93FC0121812223A1F0EC01D8
:10055000118A108A80E886838783108640E860E8E5
:10056000CF010E948F02898740E0682FCE010E9450
:100570008F0289871982DF91CF910895CF93DF93FE
:10058000EC018091C00084FF22C08981813061F03C
:10059000B0F0823019F58091C00084708D87809111
:1005A000C6008FEF8C871AC08091C00084708D8741
:1005B0008091C6008C87CE010E94A1020FC080915D
:1005C000C00084708D878091C6008C8707C08091A1
:1005D000C00084708D878091C6008C8789818130AE
:1005E00071F0823039F58C85803421F58D8581114B
:1005F00021C0198A188A1A8681E089831BC08889DC
:1006000099892C85FE01E80FF91F26832D85222369
:1006100059F04A8521E030E0082E02C0220F331F36
:100620000A94E2F7242B2A870196998B888B0497EA
:1006300008F01982DF91CF910895DF92EF92FF9237
:100640000F931F93CF93DF93FC012181211124C0CD
:100650008A017B01EC01D68047816D2D0E948F02BB
:100660008B874885682FCE010E948F028B879985E2
:10067000891719F08A8581110BC0F701D0828F810B
:1006800081838885F801808382E0898381E005C0C9
:1006900082E0898380E001C080E0DF91CF911F91EB
:1006A0000F91FF90EF90DF900895AC0120E030E0D3
:1006B0002417350768F496E096BD93E095BDA89B96
:1006C000FECF15BC95B3916095BB2F5F3F4FF0CF28
:1006D00008950E9470036894B1110C94C2030895A8
:1006E0000E94A70388F09F5798F0B92F9927B75118
:1006F000B0F0E1F0660F771F881F991F1AF0BA95C6
:10070000C9F714C0B13091F00E94C103B1E008955F
:100710000C94C103672F782F8827B85F39F0B93F51
:10072000CCF3869577956795B395D9F73EF4909578
:100730008095709561957F4F8F4F9F4F089557FD1E
:100740009058440F551F59F05F3F71F04795880F3F
:1007500097FB991F61F09F3F79F0879508951216D6
:1007600013061406551FF2CF4695F1DF08C0161682
:1007700017061806991FF1CF869571056105089433
:100780000895E894BB2766277727CB0197F908954A
:100790000E94DB030C944C040E943E0438F00E943B
:1007A000450420F0952311F00C9435040C943B047F
:1007B00011240C94C2030E949F0370F3959FC1F310
:1007C000950F50E0551F629FF001729FBB27F00DFF
:1007D000B11D639FAA27F00DB11DAA1F649F662754
:1007E000B00DA11D661F829F2227B00DA11D621FA3
:1007F000739FB00DA11D621F839FA00D611D221F5D
:10080000749F3327A00D611D231F849F600D211D40
:10081000822F762F6A2F11249F5750409AF0F1F0C3
:1008200088234AF0EE0FFF1FBB1F661F771F881F2C
:1008300091505040A9F79E3F510580F00C9435042B
:100840000C94C2035F3FE4F3983ED4F3869577950A
:100850006795B795F795E7959F5FC1F7FE2B880FD2
:10086000911D9695879597F9089597F99F6780E868
:1008700070E060E008959FEF80EC089500240A94F2
:100880001616170618060906089500240A9412166B
:100890001306140605060895092E0394000C11F49E
:1008A000882352F0BB0F40F4BF2B11F460FF04C04B
:1008B0006F5F7F4F8F4F9F4F0895EE0FFF1F059083
:0A08C000F491E02D0994F894FFCFA5
:00000001FF
